:100000000C9497000C94DC5B0C94DC5B0C94F43641
:100010000C94DC5B0C94DC5B0C94DC5B0C94B255B4
:100020000C94DC5B0C94DC5B0C94DC5B0C94DC5B74
:100030000C94DC5B0C94DC5B0C94DC5B0C94F74F55
:100040000C94DC5B0C94DC5B0C94DC5B0C94DC5B54
:100050000C94DC5B0C94DC5B0C94DC5B0C94DC5B44
:100060000C94DC5B0C94DC5B0C94DC5B0C94DC5B34
:100070000C94DC5B0C94234C0C94DC5B0C94004ED5
:100080000C94294E0C94DC5B0C94DC5B0C94DC5BD4
:10009000914997499D49A349A94985498B49B32865
:1000A000B328BA28C82862286228AB28AB28D728EA
:1000B000E0284F284F284F284F28D22828002F3CCF
:1000C000802F3C2F8600B81E2F862FE7802FE73029
:1000D0002400B86830243054803054306200B8A511
:1000E0003062306F80306F313300B8B33133315309
:1000F000803153315700B9773157315980315931F7
:100100005B00B97B315B31668031663167004DB58C
:100110003167316C80316C316D0071EF316D31843C
:1001200080318431850074FB318531888000112451
:100130001FBECFEFCDBFDFE3DEBFECEBF0E041E071
:1001400017C0B591A59135912591059107FD0CC07A
:1001500095918591EF01F92FE82F05900D92A21747
:10016000B307D9F7FE0104C01D92A217B307E1F748
:10017000ED32F40731F70E94905B0C94BF00F894C5
:02018000FFCFAF
:100182000009121B242D363F48415A536C657E7775
:1001920019100B023D342F265158434A757C676E65
:1001A200323B2029161F040D7A7368615E574C4555
:1001B2002B2239300F061D14636A7178474E555C45
:1001C200646D767F4049525B2C253E3708011A1335
:1001D2007D746F6659504B42353C272E1118030A25
:1001E200565F444D727B60691E170C053A33282115
:1001F2004F465D546B627970070E151C232A313805
:100202004148535A656C777E09001B122D243F36F4
:1002120058514A437C756E671019020B343D262FE4
:10022200737A6168575E454C3B3229201F160D04D4
:100232006A6378714E475C55222B3039060F141DC4
:10024200252C373E0108131A6D647F7649405B52B4
:100252003C352E2718110A03747D666F5059424BA4
:10026200171E050C333A21285F564D447B72696094
:100272000E071C152A233831464F545D626B707984
:100282002F923F924F925F926F927F928F929F92A4
:10029200AF92BF92CF92DF92EF92FF920F931F9392
:1002A200CF93DF93CDB7DEB7CE54D140CDBFDEBF03
:1002B200211531054105510509F441C4CB5BDE4FDF
:1002C2006883C554D140CA5BDE4F7883C654D1409F
:1002D2000024369527950794369527950794322F53
:1002E200202DCB5BDE4FC880D980C554D140C20ED1
:1002F200D31EC55BDE4FC882D982CB54D1408E015A
:100302000F5B1F4FCF5DDE4F08831983C152D1406F
:100312009E012F533F4FCD5DDE4F28833983C35259
:10032200D140AC0148575F4FC95BDE4F48835983C8
:10033200C754D14061E071E06C0F7D1F605E7F4F5A
:10034200C35BDE4F68837983CD54D140CE010196E1
:100352001C01FC01CB5BDE4FA881B981C554D140A1
:100362008C91838311968C911197828312968C9132
:100372001297818313968C911397808314963496E7
:10038200CF5DDE4FC880D980C152D140EC15FD054A
:1003920039F7FE013196CB5DDE4FE883F983C55212
:1003A200D140CB5DDE4F28813981C552D140D90180
:1003B20014964D915D916D917C911797D8968D9180
:1003C2009D910D90BC91A02DF9013496CB5DDE4F2D
:1003D200E883F983C552D1402A013B01E7E07694D4
:1003E200679457944794EA95D1F76A017B01F9E142
:1003F200CC0CDD1CEE1CFF1CFA95D1F74C285D28B5
:100402006E287F286A017B011EE0CC0CDD1CEE1CED
:10041200FF1C1A95D1F74A015B0102E1B694A79439
:10042200979487940A95D1F7C828D928EA28FB28F7
:10043200C424D524E624F724E3E0769567955795FE
:100442004795EA95D1F74C255D256E257F25F90163
:10045200C080D180E280F380CB5DDE4FE881F981FC
:10046200C552D14000A111A122A133A10C0D1D1D25
:100472002E1D3F1D040F151F261F371F6C017D0106
:100482004FE0CC0CDD1CEE1CFF1C4A95D1F7AC01F1
:10049200BD01032E31E176956795579547953A95BB
:1004A200D1F7302D46015701842A952AA62AB72A68
:1004B2006C017D014DE0CC0CDD1CEE1CFF1C4A954D
:1004C200D1F7AC01BD01032E33E1769567955795BF
:1004D20047953A95D1F7302D4C295D296E297F2910
:1004E20075016401C426D526E626F726AC01BD01B6
:1004F2008AE076956795579547958A95D1F7D70102
:10050200C60184279527A627B727800F911FA21F10
:10051200B31F84AF95AFA6AFB7AFCD5DDE4FC88036
:10052200D980C352D140EC15FD0509F03ACFC95B21
:10053200DE4FE880F980C754D140C75BDE4FE882C6
:10054200F982C954D140FE01EF5FFE4FD701C35B70
:10055200DE4F88819981CD54D1404D915D916D914D
:100562007D9141935193619371938E179F07A9F7E0
:10057200CF5FDE4F488059806A807B80C150D14076
:10058200CB5FDE4F088119812A813B81C550D14062
:10059200CF5CDE4F088319832A833B83C153D1404A
:1005A200C75FDE4F288139814A815B81C950D140C2
:1005B200C35DDE4F288339834A835B83CD52D140AA
:1005C200CF5EDE4F88809980AA80BB80C151D14026
:1005D200CB5EDE4F488159816A817B81C551D14012
:1005E200C75CDE4F488359836A837B83C953D140FA
:1005F200C75EDE4F688179818A819B81C951D14072
:10060200CB5CDE4F688379838A839B83C553D14059
:10061200C35EDE4F88819981AA81BB81CD51D140D1
:10062200CB5DDE4F88839983AA83BB83C552D140B9
:10063200C35FDE4FC880D980EA80FB80CD50D140B5
:10064200CF5BDE4FC882D982EA82FB82C154D1409D
:10065200E2E1F1EA18E9E12E1FE2F12E0AE812E4E2
:10066200C35CDE4FE882F9820A831B83CD53D140FB
:1006720066C0C190D190E190F190C35CDE4FC88218
:10068200D982EA82FB82CD53D140C35DDE4F4881DD
:1006920059816A817B81CD52D140CF5BDE4F488345
:1006A20059836A837B83C154D140CB5CDE4F68811E
:1006B20079818A819B81C553D140CB5DDE4F6883AE
:1006C20079838A839B83C552D140C75CDE4F888180
:1006D2009981AA81BB81C953D140CB5CDE4F88830B
:1006E2009983AA83BB83C553D140C75CDE4F8882FE
:1006F2009982AA82BB82C953D140C75DDE4F8880EE
:100702009980AA80BB80C952D140CF5CDE4FC8809D
:10071200D980EA80FB80C153D140C35DDE4FC882DD
:10072200D982EA82FB82CD52D140CF5CDE4F488231
:1007320059826A827B82C153D140280139017501F5
:1007420064018AE1CC0CDD1CEE1CFF1C8A95D1F7FA
:10075200D501C40126E0B695A795979587952A9568
:10076200D1F78C299D29AE29BF299501840145E144
:10077200000F111F221F331F4A95D1F7B501A401A3
:10078200032E3BE076956795579547953A95D1F7B5
:10079200302D402B512B622B732B6C017D01C42613
:1007A200D526E626F726B501A401440F551F661F7C
:1007B200771F440F551F661F771F440F551F661F73
:1007C200771F440F551F661F771F440F551F661F63
:1007D200771F440F551F661F771F440F551F661F53
:1007E200771F95018401A9E13695279517950795FD
:1007F200AA95D1F7402B512B622B732B4C255D25EB
:100802006E257F25D501C40180959095A095B09560
:10081200CB5CDE4F088119812A813B81C553D140CF
:1008220080239123A223B323C75CDE4FC880D980E3
:10083200EA80FB80C953D140C820D920EA20FB209E
:10084200C826D926EA26FB264C0D5D1D6E1D7F1D8E
:10085200D1010D911D912D913D911D01400F511F0F
:10086200621F731FCB5DDE4F88819981AA81BB8194
:10087200C552D140840F951FA61FB71FC35CDE4F20
:10088200C880D980EA80FB80CD53D1408C0D9D1D5C
:10089200AE1DBF1DCF5BDE4FE880F9800A811B8150
:1008A200C154D140E80EF91E0A1F1B1FC75DDE4F5F
:1008B200E882F9820A831B83C952D14093018201E3
:1008C2004EE1000F111F221F331F4A95D1F7B301CA
:1008D200A2017695679557954795769567955795B1
:1008E2004795402B512B622B732B930182010F2EC4
:1008F200F3E1000F111F221F331FFA95D1F7F02DDC
:10090200730162010B2EBDE0F694E794D794C7946D
:10091200BA95D1F7B02DC02AD12AE22AF32AC426E9
:10092200D526E626F726B301A20126E1769567953C
:10093200579547952A95D1F7930182010F2EFAE038
:10094200000F111F221F331FFA95D1F7F02D402BF4
:10095200512B622B732B970186010427152726271B
:100962003727CB5DDE4F088319832A833B83C55229
:10097200D140C35DDE4F088119812A813B81CD526E
:10098200D140CF5CDE4F488159816A817B81C1535E
:10099200D140042715272627372704211521262190
:1009A2003721C35DDE4FC880D980EA80FB80CD52FB
:1009B200D1404C215D216E217F2104271527262756
:1009C2003727CB5DDE4F488159816A817B81C552D1
:1009D200D140040F151F261F371F080F191F2A1F8A
:1009E2003B1F6EE072EA6E177F0709F042CECB5CC6
:1009F200DE4F88819981AA81BB81C553D140C35EF4
:100A0200DE4F88839983AA83BB83CD51D140C75CD3
:100A1200DE4FC880D980EA80FB80C953D140C75ECF
:100A2200DE4FC882D982EA82FB82C951D140CB5EB5
:100A3200DE4F88829982AA82BB82C551D140C75DAE
:100A4200DE4F488159816A817B81C952D140CF5E94
:100A5200DE4F488359836A837B83C151D140C35D92
:100A6200DE4F688179818A819B81CD52D140C35FFB
:100A7200DE4F688379838A839B83CD50D140CF5CDC
:100A8200DE4F88819981AA81BB81C153D140C75F62
:100A9200DE4F88839983AA83BB83C950D140CB5F41
:100AA200DE4F488259826A827B82C550D140DE0184
:100AB200AF5FBE4F0D931D932D933D93C95BDE4FE8
:100AC200E881F981C754D14060E070E0AD01C75BB5
:100AD200DE4F88819981C954D14006C0DA010D9157
:100AE2001D912D913D91AD01C190D190E190F19078
:100AF2000C0D1D1D2E1D3F1DDC010D931D932D930D
:100B02003D93CD016F5F7F4F6830710539F7CB5B45
:100B1200DE4FE881F981C554D140E05CFF4FCB5BE9
:100B2200DE4FE883F983C554D140C55BDE4FC880F0
:100B3200D980CB54D140EC15FD0509F007CCC25B3E
:100B4200DE4FCDBFDEBFDF91CF911F910F91FF909E
:100B5200EF90DF90CF90BF90AF909F908F907F905B
:0C0B62006F905F904F903F902F9008958F
:100B6E000F931F93CF93DF9300D0CDB7DEB78C01D9
:100B7E0080916D31823008F45AC0833009F050C034
:100B8E0090917431992309F44BC0492F50E090FD98
:100B9E0047C090E09F5F9A01092E02C035952795B8
:100BAE000A94E2F720FFF6CF21E030E001C0220FD9
:100BBE009A95EAF7283009F40AC208F4CFC020311A
:100BCE0009F485C1203261F590917131992341F17B
:100BDE001092713119821A82C8010E94715AC8018D
:100BEE0008960E94715A89818170806C8E7F8983EC
:100BFE001A8241E050E0BE016F5F7F4FC8010E9434
:100C0E00F04241E050E0BE016E5F7F4FC8010E948E
:100C1E00F042C8010E94445381117CC280916D3113
:100C2E000F900F90DF91CF911F910F91089590919A
:100C3E00743190FFF5CFC8010E94715AC801089611
:100C4E000E94715A41E050E06AEC7FE2C8010E94B6
:100C5E00F0422091E52F3091E62F822F8F77220FD1
:100C6E00232F221F330B31952115310509F012C1A7
:100C7E00EBECFFE241E050E080836BEC7FE2C801D9
:100C8E000E94F0424AE050E06FEC7FE2C8010E9401
:100C9E00F04242E050E069ED7FE2C8010E94F0426E
:100CAE006091DB2F7091DC2FFB0101900020E9F7A2
:100CBE003197AF01461B570BC8010E94F04280913D
:100CCE00E12F9091E22F892B31F48091DD2F9091BD
:100CDE00DE2F892B51F142E050E06DED7FE2C8012D
:100CEE000E94F0424091DD2F5091DE2F5427452770
:100CFE0054276091DF2F7091E02FC8010E94F042BF
:100D0E0042E050E061EE7FE2C8010E94F042409165
:100D1E00E12F5091E22F5427452754276091E32F5E
:100D2E007091E42FC8010E94F042C8010E94445302
:100D3E00882309F473CF809174318E7F8093743140
:100D4E0040E355E760E070E087EE90E30E945F3786
:100D5E0082E080936D311092723162CF243009F0AF
:100D6E005FCF8DED90E30E94C655C8010E94715A67
:100D7E00C80108960E94715A41E050E066E370E3A4
:100D8E00C8010E94F0422091443030914530822FAC
:100D9E008F77220F232F221F330B3195211531050B
:100DAE0009F4A4C140E0E42FF0E0E95CFF4C806858
:100DBE008083E1E0E40F822F8F77220F232F221FF3
:100DCE00330B31952115310509F07FC0F0E0E95C58
:100DDE00FF4C4E5F50E0808367E370E3C8010E94D2
:100DEE00F04242E050E06BE370E3C8010E94F04233
:100DFE0040913B3050913C30542745275427609109
:100E0E003D3070913E30C8010E94F04280913630E4
:100E1E008670823009F46FC14091413050E060918C
:100E2E00423070914330C8010E94F042809174317B
:100E3E0082FD04C08091363083FF14C0C8010E9429
:100E4E004453882379F0809174318B7F8093743171
:100E5E00809136308670823029F4809173318062B1
:100E6E00809373318091D72F9091D82F009709F4EA
:100E7E00D5CE9827892798279C0121503109A8EEB5
:100E8E00B3E00E941958AB01BC018DED90E30E94B6
:100E9E005F37C4CE40E0E42FF0E0E553F04D8068BC
:100EAE008083E1E0E40F822F8F77220F232F221F02
:100EBE00330B31952115310531F44E5F50E0F0E0E2
:100ECE00E553F04DD9CE4E2FE6CF4E2F6CCF8DED94
:100EDE0090E30E94C655C8010E94715AC801089637
:100EEE000E94715A41E050E062E670E3C8010E9430
:100EFE00F04220916D3030916E30822F8F77220F1D
:100F0E00232F221F330B31952115310509F4E9C02A
:100F1E0040E0E42FF0E0ED59FF4C80688083E1E083
:100F2E00E40F822F8F77220F232F221F330B319541
:100F3E002115310509F049C04E5F50E0F0E0ED5942
:100F4E00FF4C808363E670E3C8010E94F04241E0EB
:100F5E0050E068E670E3C8010E94F04241E050E0C4
:100F6E0067E670E3C8010E94F04242E050E069E695
:100F7E0070E3C8010E94F0424091693050916A308E
:100F8E0054274527542760916B3070916C30C801FF
:100F9E000E94F042C8010E944453882309F462CF94
:100FAE00809174318F7E809374318091733188601B
:100FBE008093733110926E3140E355E760E070E03C
:100FCE008FEB90E30E945F374DCF4E2FA2CF8DED6A
:100FDE0090E30E94C655C8010E94715AC801089636
:100FEE000E94715A41E050E066E470E3C8010E942D
:100FFE00F0422091523030915330822F8F77220F52
:10100E00232F221F330B31952115310509F464C0AE
:10101E0040E0E42FF0E0E95BFF4C80688083E1E084
:10102E00E40F822F8F77220F232F221F330B319540
:10103E002115310509F04EC04E5F50E0F0E0E95B3E
:10104E00FF4C808367E470E3C8010E94F04241E0E8
:10105E0050E06CE470E3C8010E94F04241E050E0C1
:10106E006BE470E3C8010E94F04242E050E06DE490
:10107E0070E3C8010E94F04240914D3050914E30C5
:10108E0054274527542760914F3070915030C80136
:10109E000E94F04241E050E061E570E3C8010E9419
:1010AE00F042C8010E944453882309F4DBCE80919C
:1010BE007431877F80937431809173318460809313
:1010CE00733110926F3140E355E760E070E089ECC8
:1010DE0090E378CF4E2F9DCFE7E4F0E341E050E070
:1010EE00B0CFE3E6F0E341E050E02BCF41E050E03B
:1010FE00E7E3F0E370CE41E050E060E470E3C80156
:10110E000E94F04241E050E06FE370E3C8010E949C
:10111E00F04282CE809174318F7D809374318091B4
:10112E00733180618093733140E355E760E070E086
:06113E0083ED90E3ACCE4E
:101144004F925F926F927F929F92AF92BF92CF9293
:10115400DF92EF92FF920F931F93CF93DF93CDB75C
:10116400DEB7C455D109CDBFDEBF5B0169017A0189
:10117400813409F460C0843509F45DC0823409F413
:1011840079C1833409F478C0843409F441C18B34BF
:1011940009F43EC18A3409F4C4C1863409F4EEC0AA
:1011A400883409F488C18D3409F4E8C0853409F41D
:1011B400D9C1873409F482C18C3409F4D3C182358E
:1011C40031F501E024E130E0AE014F5F5F4FC7012C
:1011D400B6010E94352A81111AC08D819E818093A7
:1011E400082C9093092C8091082C9091092C892B20
:1011F40071F0E091082CF091092C29853A854B85F2
:101204005C8569817A818B819C8109890995CC5A95
:10121400DF4FCDBFDEBFDF91CF911F910F91FF90C4
:10122400EF90DF90CF90BF90AF909F907F906F90A2
:101234005F904F90089500E024E030E0AE014F5FEE
:101244005F4FC701B6010E94352A8111E0CF8A8120
:1012540026968FAF26978091062C9091072C892B88
:10126400B1F2E091062CF091072CAE014B5B5F4F7D
:1012740061E089810995CBCF5E0185E4A80EB11C9C
:1012840000E02CE030E0A501C701B6010E94352A38
:101294008111BDCFD50119968C91199787FD48C04E
:1012A400482F082E000C550B18962C9118973BE0EC
:1012B4002303F0011124E357F44D9185349FF00189
:1012C400359FF00D1124E357F44D918791E09087F9
:1012D4001A962D913C911B97285031092683378308
:1012E40020915D3130915E312F5F3F4F20935D310E
:1012F40030935E3120915D3130915E31232B51F476
:1013040020915D3130915E312F5F3F4F20935D31ED
:1013140030935E3120915D3130915E319BE0949F3A
:10132400F001959FF00D1124E357F44D2483358388
:10133400898382E090E08A839B83F5018281938193
:101344008C839D8384819581A681B7818E839F83BD
:10135400A887B9878091062C9091072C892B09F4D2
:1013640056CFE091062CF091072CAE014F5F5F4FF2
:1013740064E0D50118968C91099549CF96E0992E91
:1013840000E020E130E0AE014B5B5F4FC701B601E6
:101394000E94352A81113BCF62968FAD6297659684
:1013A4002EAD3FAD6597ABE08A02F0011124E357FF
:1013B400F44D12862F966EAD7FAD2F976196AEAD2C
:1013C400BFAD619729964EAD5FAD299749875A877E
:1013D4002D964CAC5DAC6EAC7FAC2D974B865C8689
:1013E4006D867E86448155812417350709F4BCC077
:1013F400B1E1AB16B10408F40ACF01E020E030E01B
:1014040040E050E060E070E0CB010E94352AFFCE5E
:1014140000E024E030E0AE014F5F5F4FC701B6014A
:101424000E94352A8111F3CE89815E01B5E4AB0EA9
:10143400B11CF50180839A81918391110CC02B8199
:101444003C81285031099BE08902F0011124E357C3
:10145400F44D268337832091062C3091072C232BBF
:1014640009F4D5CEE091062CF091072CA50165E096
:101474000995CDCE00E024E030E0AE014F5F5F4F30
:10148400C701B6010E94352A8111C1CE8A812696F0
:101494008FAF26978091062C9091072C892B09F405
:1014A400B6CEE091062CF091072CAE014B5B5F4F5A
:1014B40062E08981DFCE89E0982E62CF18E000E0F7
:1014C40028E030E0AE014F5F5F4FC701B6010E94D4
:1014D400352A81119CCE89814D815E812B813C818D
:1014E40027962EAF3FAF27979BE08902F001112486
:1014F400E357F44D248135814217530709F087CE11
:101504002091062C3091072C232B09F480CEE091F6
:10151400062CF091072CAE014B5B5F4F612F0995B0
:1015240076CE00E024E430E0AE014F5F5F4FC701A8
:10153400B6010E94352A81116ACE80910A2C9091BD
:101544000B2C892B09F463CEE0910A2CF0910B2C1F
:1015540025964CAD5DAD6EAD7FAD2597CE01019660
:10156400099555CE17E0ABCF161617068CF46A15FD
:101574007B0570F4970186010A0F1B1F211D311D85
:101584007B01492DBE016F5F7F4F0E94DB263FCE5A
:101594006B837C8319821A822091062C3091072C4C
:1015A400232B09F434CEE091062CF091072CAE01E4
:0A15B4004F5F5F4F692D09952ACEA5
:1015BE003A204765742073657269616C206E756D93
:1015CE00626572206661696C6564202D2D205374EE
:1015DE00617475733A20253032580D0A003A204254
:1015EE00616420696E70757420706172616D6574CE
:1015FE00657273202D2D205374617475733A2025F6
:10160E003032580D0A003A205369676E20466169E0
:10161E006C6564202D2D205374617475733A2025EA
:10162E003032580D0A003A205665726966792046A6
:10163E0061696C6564202D2D205374617475733A45
:10164E0020253032580D0A003A20437265617465C8
:10165E00206B6579206661696C6564202D2D2053A1
:10166E0074617475733A20253032580D0A003A2091
:10167E0045434448206661696C6564202D2D2053D6
:10168E0074617475733A20253032580D0A003A2071
:10169E004E554C4C20696E70757473202D2D205351
:1016AE0074617475733A20253032580D0A003A2051
:1016BE0047656E207075626C6963206B6579206674
:1016CE0061696C6564202D2D205374617475733AB5
:1016DE0020253032580D0A003A2042616420617490
:1016EE006361746C735F726561645F7075626B6564
:1016FE0079282920696E70757420706172616D652C
:10170E0074657273202D2D205374617475733A2095
:10171E00253032580D0A003A2052656164207075EA
:10172E00626C6963206B6579206661696C65642003
:10173E002D2D205374617475733A20253032580D57
:10174E000A003A2052616E646F6D20636F6D6D6199
:10175E006E64206661696C6564202D2D2053746162
:10176E007475733A20253032580D0A003A2057729C
:10177E0069746520706172656E7420656E6372792E
:10178E007074696F6E206B6579206661696C656433
:10179E00202D2D205374617475733A2025303258E4
:1017AE000D0A003A20536C6F74206C6F636B2066C9
:1017BE0061696C65642E202D2D20537461747573D0
:1017CE003A20253032580D0A003A204765742065BC
:1017DE006E636B6579204661696C6564202D2D20E2
:1017EE005374617475733A20253032580D0A003ADD
:1017FE002045434448204661696C6564202D2D20A8
:10180E005374617475733A20253032580D0A003ABC
:10181E002047657420656E6372797074696F6E20EF
:10182E006B6579206661696C6564202D2D2053747B
:10183E00617475733A20253032580D0A003A2052E1
:10184E0065616420656E637279707465642066618B
:10185E00696C6564202D2D205374617475733A2064
:10186E00253032580D0A003A20577269746520658A
:10187E006E63727970746564206661696C6564204C
:10188E002D2D205374617475733A20253032580D06
:10189E000A003A20525341206B65792062756666C4
:1018AE00657220746F6F20736D616C6C202D2D200E
:1018BE005374617475733A20253032580D0A003A0C
:1018CE00205265616420525341206661696C6564E3
:1018DE00202D2D205374617475733A2025303258A3
:1018EE000D0A003A205772697465206F6620707574
:1018FE00626C6963206B657920736C6F742066610E
:10190E00696C6564202D2D205374617475733A20B3
:10191E00253032580D0A003A204C6F636B207075DB
:10192E00626C6963206B657920736C6F74206661DD
:10193E00696C6564202D2D205374617475733A2083
:10194E00253032580D0A003A2052656164206F66C8
:10195E00207075626C6963206B657920736C6F748F
:10196E00206661696C6564202D2D20537461747539
:10197E00733A20253032580D0A003A204661696CC0
:10198E00656420746F20726561642063657274698A
:10199E00666963617465202D2D20537461747573AF
:1019AE003A20253032580D0A003A204661696C659E
:1019BE006420746F206372656174652043535220F6
:1019CE002D2D205374617475733A20253032580DC5
:0219DE000A00FD
:1019E000ABE0B0E0E6EFFCE00C94A8536C017B01A7
:1019F0008A01FC0116821782838181FFCCC1CE014E
:101A000001963C01F6019381F70193FD859193FFC7
:101A100081917F01882309F4BAC1853239F493FD9D
:101A2000859193FF81917F01853229F4B60190E081
:101A30000E947947E7CF912C212C312CFFE1F3153F
:101A4000D8F08B3279F038F4803279F08332A1F417
:101A5000232D20611DC08D3261F0803369F4232D68
:101A6000216016C0832D8260382EE32DE4603E2E67
:101A70002AC0F32DF8601DC037FC2DC020ED280FC3
:101A80002A3040F08E32B9F436FC81C1232D206417
:101A9000322E19C036FE06C08AE0989E200D112411
:101AA000922E11C0EAE02E9E200D1124222EF32D3D
:101AB000F0623F2E08C08C3621F4832D8068382ECA
:101AC00002C0883641F4F70193FD859193FF81911F
:101AD0007F018111B3CF982F9F7D9554933028F4C7
:101AE0000C5F1F4F9FE399830DC0833631F083371E
:101AF00071F0833509F059C021C0F80180818983D4
:101B00000E5F1F4F88248394912C530113C028012A
:101B1000F2E04F0E511CF801A080B18036FE03C0E8
:101B2000692D70E002C06FEF7FEFC5010E9463591D
:101B30004C018201F32DFF773F2E16C0280122E0D1
:101B4000420E511CF801A080B18036FE03C0692D01
:101B500070E002C06FEF7FEFC5010E9458594C0141
:101B6000F32DF0683F2E820133FC1BC0822D90E0E4
:101B700088169906B0F4B60180E290E00E94794799
:101B80002A94F4CFF50137FC859137FE81915F01EE
:101B9000B60190E00E94794721102A9421E0821A30
:101BA00091088114910471F7E8C0843611F08936E8
:101BB00041F5F80137FE07C0608171818281938110
:101BC0000C5F1F4F08C060817181072E000C880BCD
:101BD000990B0E5F1F4FF32DFF763F2E97FF09C025
:101BE00090958095709561957F4F8F4F9F4FF068CE
:101BF0003F2E2AE030E0A3010E947E3A882E86180C
:101C000045C0853731F4232D2F7EB22E2AE030E0F7
:101C100025C0932D997FB92E8F36C1F018F48835E1
:101C200079F0B5C0803719F0883721F0B0C0E92FBE
:101C3000E061BE2EB4FE0DC0FB2DF460BF2E09C0C6
:101C400034FE0AC0292F2660B22E06C028E030E0FC
:101C500005C020E130E002C020E132E0F801B7FE2B
:101C600007C060817181828193810C5F1F4F06C024
:101C70006081718180E090E00E5F1F4FA3010E94A0
:101C80007E3A882E8618FB2DFF773F2E36FE0DC03C
:101C9000232D2E7FA22E891458F434FE0BC032FC63
:101CA00009C0832D8E7EA82E05C0B82CA32C03C09E
:101CB000B82C01C0B92CA4FE0FC0FE01E80DF11D27
:101CC0008081803321F49A2D997EA92E09C0A2FE2D
:101CD00006C0B394B39404C08A2D867809F0B394F7
:101CE000A3FC11C0A0FE06C0B21488F4280C922CEC
:101CF0009B180EC0B21460F4B60180E290E00E941E
:101D00007947B394F7CFB21418F42B1802C0982C6B
:101D1000212CA4FE10C0B60180E390E00E94794718
:101D2000A2FE17C0A1FC03C088E790E002C088E5CE
:101D300090E0B6010CC08A2D867859F0A1FE02C051
:101D40008BE201C080E2A7FC8DE2B60190E00E9428
:101D50007947891438F4B60180E390E00E9479470E
:101D60009A94F7CF8A94F301E80DF11D8081B601B2
:101D700090E00E9479478110F5CF222009F442CEED
:101D8000B60180E290E00E9479472A94F6CFF601EE
:101D90008681978102C08FEF9FEF2B96E2E10C9432
:021DA000C1532D
:101DA2008F929F92AF92BF92FF920F931F93CF9306
:101DB200DF93CDB7DEB76497CDBFDEBF0E94CA5BAB
:101DC2008C0180916A3181119BC080916831882396
:101DD20009F42EC180911A2C81FD19C08460809370
:101DE2001A2C0E94D05B833009F435C164EF71E094
:101DF20080E090E06496CDBFDEBFDF91CF911F916E
:101E02000F91FF90BF90AF909F908F900895D8014F
:101E12005096ED91FC9151978081082E000C990B00
:101E22000E941B50F82E0E94654F4B015C0180E01E
:101E320090E00E940057672B682B692B09F0DCC0E9
:101E4200B1E0BF1508F07BC0E3E0FE1272C00E9451
:101E5200D05B882309F402C1C8010E94A710C801FF
:101E62000E94B7050E94CA5BDC011C968D909C9073
:101E72001D970E94CA5BFC01A084B1840E94CA5BC8
:101E8200DC015096ED91FC915197808120E030E089
:101E9200A401B501082E000C990B0E940B490E9467
:101EA200D05B833009F0A2CF80911A2C8B7F809374
:101EB2001A2C83E890E30E94C65589E790E30E94BA
:101EC200C655109268311092693180916631811144
:101ED2003AC10E94654F61317E40810591050CF443
:101EE20085CFC8010E94CC41D8015096ED91FC915A
:101EF20051978081082E000C990B0E94F04776CFF3
:101F020080916931811166CF0E94D05B833009F4E0
:101F120061CF8091673181115DCF40E157E260E08E
:101F220070E083E890E30E945F3781E0809369313B
:101F320051CF80911A2C846080931A2C57CF0E9423
:101F4200824D8091DA2A9091DB2AA091DC2AB0910D
:101F5200DD2A892B8A2B8B2B09F448CF82E090E073
:101F620089839A838BEB91E00E949F5B8B839C8396
:101F72008091DA2A9091DB2AA091DC2AB091DD2AA5
:101F82008D839E83AF83B8870E94CA5B8C01DC017C
:101F92005096ED91FC9151978081082E000C990B7F
:101FA2000E941B50882309F4B0C0D8015096ED91CD
:101FB200FC9151978081082E000C990B0E941B50B6
:101FC200813009F013CFD8015096ED91FC915197D1
:101FD200808140E150E0BE016F5F7F4F082E000C10
:101FE200990B0E940731882309F400CF80911A2CA3
:101FF200846080931A2C78CF0E94D05B833009F0E2
:102002001FCF8091273190912831A0912931B09131
:102012002A3188169906AA06BB0609F411CF8092C6
:10202200273190922831A0922931B0922A3108CFDB
:10203200FF24F394F092683183E890E30E94C6553E
:1020420040ED57E060E070E089E790E30E945F377F
:10205200F0926731BFCE0E94CD5BC8CE80E090E0A7
:102062000E9400574B015C01672B682B692B21F4FE
:1020720081E080936631BACE8E010F5F1F4FC80197
:102082000E9447441F930F938BEE96ED9F938F937D
:102092000EED1AE21F930F930E94A4501F930F9309
:1020A2008CE496EF9F938F9389E596EF9F938F939E
:1020B2008CED92EF9F938F938FEE96ED9F938F937C
:1020C2008EE09AE29F938F930E94A4501F930F93E6
:1020D20081E297ED9F938F9380E298E29F938F9393
:1020E2000E94A450A501940120583C4B4249574CF0
:1020F2000CED12EF68EC71E086E498E20E94953BE9
:102102000E947D4CCDBFDEBFB3CFF801A088B1885D
:1021120041E050E061E070E082E090E00E943E50D9
:10212200D5018C93D8015096ED91FC915197808105
:1021320087FD41CF0E947B4E009709F436CF21E004
:0C214200FC01248332CF0E941642C3CE61
:10214E00CF92DF92EF92FF920F931F93CF93DF9375
:10215E00CDB7DEB72997CDBFDEBF8C011986809132
:10216E007031811105C080916F31882309F46DC0E3
:10217E0010926D31C8010E94BC56F8018685978574
:10218E00892B09F454C080916D31823009F463C0FB
:10219E00833009F04EC07801F8E0EF0EF11C41E0FB
:1021AE0050E0BE01675F7F4FC7010E94E9408985FD
:1021BE0082958F70893009F49BC008F06FC0833010
:1021CE0009F431C1843099F5BE016F5F7F4FFB0179
:1021DE0011928A95E9F741E050E0C7010E944D4007
:1021EE0041E050E0BE016E5F7F4FC7010E944D403F
:1021FE0041E050E0BE016C5F7F4FC7010E944D4031
:10220E0041E050E0BE016D5F7F4FC7010E944D401F
:10221E009B8180913F3098130AC09C818091403001
:10222E00981305C0809173318F7D809373318091A7
:10223E006D312996CDBFDEBFDF91CF911F910F91EA
:10224E00FF90EF90DF90CF90089580916E318823AC
:10225E0009F493CF8DCF80917231811119C0C09046
:10226E00D72FD090D82F87EE90E30E94C6557801D5
:10227E00F8E0EF0EF11C41E050E0BE01675F7F4FCA
:10228E00C7010E94E9408985807F803209F474C0BD
:10229E0010926D31C8010E94BC56C9CF8B3009F423
:1022AE00C6C08D3021F68091733184FFC0CF8091EE
:1022BE0070318111BCCF83ED90E30E94C655198217
:1022CE001A8241E050E0BE016F5F7F4FC7010E944E
:1022DE004D408091D72F9091D82F892B29F0809146
:1022EE007431806280937431C7010E94715A9FCFFE
:1022FE008091733182FF9BCF80916F31811197CF87
:10230E0089EC90E30E94C655BE016F5F7F4F88E057
:10231E00FB0111928A95E9F741E050E0C7010E9456
:10232E004D4041E050E0BE016E5F7F4FC7010E94FD
:10233E004D4041E050E0BE016A5F7F4FC7010E94F1
:10234E004D4041E050E0BE01695F7F4FC7010E94E2
:10235E004D409F8180914B30981709F44CC010E08E
:10236E00809173318B7F80937331C7010E94715AB4
:10237E0010936D31812F5DCFBE016F5F7F4F84E073
:10238E00FB0111928A95E9F741E050E0C7010E94E6
:10239E004D4041E050E0BE016E5F7F4FC7010E948D
:1023AE004D4041E050E0BE016D5F7F4FC7010E947E
:1023BE004D4041E050E0BE016C5F7F4FC7010E946F
:1023CE004D408C81811178C0DC24CD24DC2483E047
:1023DE0080936D31C114D10409F072C080E090E099
:1023EE000E940057609333317093343180933531AE
:1023FE00909336311CCF9E8180914C309813AFCF85
:10240E0041E050E0BE01685F7F4FC7010E944D4022
:10241E008885803809F4A3CF90915130981708F42D
:10242E009ECF13E09DCFC8010E94931A00CF8091DA
:10243E00733183FFFCCE80916E318111F8CE8FEB1C
:10244E0090E30E94C655BE016F5F7F4F84E0FB0193
:10245E0011928A95E9F741E050E0C7010E944D4084
:10246E0041E050E0BE016E5F7F4FC7010E944D40BC
:10247E008A81823029F010E080917331877F73CF8B
:10248E0041E050E0BE016D5F7F4FC7010E944D409D
:10249E0041E050E0BE016C5F7F4FC7010E944D408E
:1024AE009C81809167309813E6CF9B818091683034
:1024BE009813E1CF13E0E0CF10926D3180E0B9CEEA
:1024CE00809174318062809374319601215031096C
:1024DE00A8EEB3E00E941958AB01BC018DED90E35C
:0624EE000E945F377BCF66
:1024F400AF92BF92CF92DF92EF92FF920F93CF935E
:10250400DF93CDB7DEB7C456D109CDBFDEBF6901B5
:102514007A018C3209F44BC08B3109F460C08630E7
:1025240009F476C08E30E9F0823349F18F3209F430
:1025340088C0843309F4A7C0813109F4FDC0833114
:1025440009F417C1843009F42CC1853609F4B3C0E9
:10255400893009F43FC18A3209F455C1803209F443
:10256400C3C0CC59DF4FCDBFDEBFDF91CF910F91F8
:10257400FF90EF90DF90CF90BF90AF90089500E070
:1025840024E130E0AE014F5F5F4FC701B6010E9406
:10259400352A8111E6CFE0915B31F0915C313097BF
:1025A40001F3BE016F5F7F4F82E30995DACF00E04C
:1025B40024E030E0AE014F5F5F4FC701B6010E94D7
:1025C400352A8111CECFE0915B31F0915C313097A7
:1025D40041F2BE016F5F7F4F8CE20995C2CF00E0EC
:1025E40028E030E0AE014F5F5F4FC701B6010E94A3
:1025F400352A8111B6CFE0915B31F0915C3130978F
:1026040009F4AFCFBE016F5F7F4F8BE10995A9CF6E
:1026140001E020E330E0AE014F5F5F4FC701B60138
:102624000E94352A81119DCFE0915B31F0915C319C
:10263400309709F496CFBE016F5F7F4F86E009950E
:1026440090CF24E630E040E050E060E0CE01019617
:102654000E94A55800E024E630E0AE014F5F5F4FD2
:10266400C701B6010E94352A81117BCFE0915B310D
:10267400F0915C31309709F474CFBE016F5F7F4FE6
:102684008FE209956ECF00E024E030E0AE014F5FA9
:102694005F4FC701B6010E94352A811162CFE091D4
:1026A4005B31F0915C31309709F45BCF60E070E00E
:1026B40084E3099556CF00E024E030E0AE014F5F9B
:1026C4005F4FC701B6010E94352A81114ACFE091BC
:1026D4005B31F0915C31309709F443CFBE016F5FF9
:1026E4007F4F85E609953DCF00E026E030E0AE015E
:1026F4004F5F5F4FC701B6010E94352A811131CF68
:102704002B813C8149815A81C701B6016A5F7F4FA1
:102714008F4F9F4F01E00E94352A811122CFE09113
:102724005B31F0915C31309709F41BCFBE016F5FD0
:102734007F4F80E2099515CF10927E3100E024E0AE
:1027440030E0CE0101965C01AC01C701B6010E94E4
:10275400352A811106CF898180937F31E0915B31E5
:10276400F0915C31309709F4FCCEB50181E1099513
:10277400F8CE00E02CE230E0CE0101965C01AC0121
:10278400C701B6010E94352A8111EBCEE0915B317D
:10279400F0915C31309709F4E4CEB50183E10995F9
:1027A400E0CE00E024E030E0AE014F5F5F4FC701B0
:1027B400B6010E94352A8111D4CEE0915B31F091AB
:1027C4005C31309709F4CDCEBE016F5F7F4F84E05A
:1027D4000995C7CE01E024E630E0AE014F5F5F4FBC
:1027E400C701B6010E94352A8111BBCEE0915B314D
:1027F400F0915C31309709F4B4CEBE016F5F7F4F26
:1028040089E00995AECE01E024E030E0AE014F5FEF
:102814005F4FC701B6010E94352A8111A2CEE09113
:102824005B31F0915C31309709F49BCEBE016F5F50
:082834007F4F8AE2099595CE61
:10283C004F925F926F927F928F929F92AF92BF92C4
:10284C00CF92DF92EF92FF920F931F93CF93DF9370
:10285C00CDB7DEB76697CDBFDEBFB82EA62E2A0148
:10286C0039014801862F8F778E87BD8688E090E0EE
:10287C008F87988B8F859889012B09F46AC08E0DF0
:10288C009F1D8C0D9D1D8F87988B8091712B88239C
:10289C0009F454C01D821E821F821886198A1A8A56
:1028AC0019861A861B861C8689859A85AB85BC85FC
:1028BC008B2989879A87AB87BC8789859A85AB8555
:1028CC00BC859A2989879A87AB87BC872F853889DD
:1028DC0049855A856B857C85C901A0E0B0E0DC0197
:1028EC0099278827842B952BA62BB72B89879A871A
:1028FC00AB87BC8729853A854B855C856CE870E194
:10290C0080E090E00E94085C882331F19091702B5C
:10291C00911119C06696CDBFDEBFDF91CF911F918B
:10292C000F91FF90EF90DF90CF90BF90AF909F9062
:10293C008F907F906F905F904F9008950E94DA5522
:10294C008111E8CFA7CF9091702B91509093702B61
:10295C00E1CF820F931F97CF19861A861B861C8690
:10296C0089859A85AB85BC85826089879A87AB8778
:10297C00BC8729853A854B855C8568E770E180E0EA
:10298C0090E00E94085C8111C1CF1D821E821F82C3
:10299C001886198A1A8A89899A89883E934088F000
:1029AC0029C089859A85AB85BC8581FFCCC0898976
:1029BC009A890196898B9A8B89899A89883E93404A
:1029CC00C8F4AE01475F5F4F68E770E180E090E0CC
:1029DC000E94065C81110EC089899A89843F9140BE
:1029EC0000F389899A8961E070E080E090E00E94B0
:1029FC007656D7CF8D819E81AF81B885892B8A2B56
:102A0C008B2B09F4B1C08D819E81AF81B8858983F0
:102A1C009A83AB83BC838F8598898F87988B6981C8
:102A2C007A818B819C8108E010E020E030E0AE01DF
:102A3C00435F5F4F0E945E2E811168CF89819A811E
:102A4C00AB81BC810896A11DB11D89839A83AB8390
:102A5C00BC834114510421F1C301A0E0B0E08B8B85
:102A6C009C8BAD8BBE8B69817A818B819C810B8910
:102A7C001C892D893E89A2010E945E2E811146CFB0
:102A8C0089819A81AB81BC812B893C894D895E8976
:102A9C00820F931FA41FB51F89839A83AB83BC83BA
:102AAC008114910441F189819A81AB81BC81C61852
:102ABC00D7088C0D9D1DA11DB11D89839A83AB83F5
:102ACC00BC836701E12CF12C69817A818B819C811B
:102ADC0097018601A4010E945E2E811117CF898176
:102AEC009A81AB81BC818C0D9D1DAE1DBF1D898350
:102AFC009A83AB83BC838D819E81AF81B885880F0F
:102B0C00991FAA1FBB1F880F991FAA1FBB1F89875C
:102B1C009A87AB87BC8789859A85AB85BC85826093
:102B2C0089879A87AB87BC8729853A854B855C85D5
:102B3C006CE670E180E090E00E94085C8111E6CECA
:102B4C000E940E55E7CEAE014B5F5F4F60E074E024
:102B5C0085E190E00E94065C882309F44BCF1D822E
:102B6C001E821F821886D2CE0E940E558DEFD2CEB9
:102B7C002F923F924F925F926F927F928F929F9281
:102B8C00AF92BF92CF92DF92EF92FF920F931F936F
:102B9C00CF93DF9300D000D0CDB7DEB78B839C836F
:102BAC003B016A011901452B09F4FDC0892B09F47D
:102BBC00FAC0232B09F4F7C00115110509F4F3C071
:102BCC009B01ABEABAEA0E941958969587959C012D
:102BDC00220F331F820F931F41E050E068167906D5
:102BEC0009F405C19301ABEABAEA0E94195896950B
:102BFC0087959A01280F391F220F331F220F331F7D
:102C0C00F8016381662361F0862F837009F001C19E
:102C1C0070E0C9010E94EE55660F771F260F371F13
:102C2C002F5F3F4FF101808191818217930708F448
:102C3C00E1C0F101108211826114710409F4EFC03A
:102C4C0019821A82E12CF12C812C912CF8016381D0
:102C5C00662301F181149104E9F070E0C701298128
:102C6C003A81821B930B0E94EE55892B99F4F60145
:102C7C00EE0DFF1D3DE03083F7013196EC0DFD1D8F
:102C8C0082E0E80EF11C9AE09083E981FA81329699
:102C9C00E983FA835701FFEFAF1ABF0A26014E0CE6
:102CAC005F1CEB81FC818081B801869586950E9422
:102CBC00C650F2018083EB81FC81908193709295D8
:102CCC00907F94012F5F3F4F2615370508F0BCC04D
:102CDC002701F2E04F0E511CAC0CBD1CEB81FC81AA
:102CEC00818182958F70B801892B0E94C650F501A5
:102CFC008083EB81FC8191819F70990F990F9401D6
:102D0C002E5F3F4F5601A40CB51C2615370508F055
:102D1C008BC082818295869586958370B801892BAC
:102D2C000E94C650F50180835701F3E0AF0EB11C31
:102D3C00AC0CBD1C24E0E20EF11CEB81FC81828109
:102D4C00B8018F730E94C650F501808333E0830E67
:102D5C00911C8B819C8103968B839C838614970496
:102D6C0008F474CF92E0E916F10408F45BC0C701D3
:102D7C000197F601E80FF91F2081222341F052C080
:102D8C00AC01415051092291211104C0CA0181307A
:102D9C009105B1F7F601E80FF91F1082F10180835C
:102DAC00918380E00EC01F9282EE8F938AEB9CE899
:102DBC009F938F930E94A4540F900F900F900F909D
:102DCC0082EE2496CDBFDEBFDF91CF911F910F9184
:102DDC00FF90EF90DF90CF90BF90AF909F908F902F
:102DEC007F906F905F904F903F902F90089540E0B0
:102DFC0050E0F8CE1F928DEE8F938EE79DE89F9357
:102E0C008F930E94A4540F900F900F900F908DEE03
:102E1C00D8CF1F9282EE8F9383E49DE8C9CF80E0D8
:102E2C0090E0B8CFC701B6CFB801892F0E94C65029
:102E3C00F5018083F8018281F7013396EC0DFD1DBD
:102E4C0024E0E20EF11C81CFAC0CBD1CB801892F23
:102E5C000E94C650F5018083F8018281F2018283C1
:022E6C00E9CFAC
:102E6E008F929F92AF92BF92CF92DF92EF92FF928C
:102E7E000F931F93CF93DF9300D0CDB7DEB7FC0136
:102E8E005B01892B51F0608171816115710529F00B
:102E9E00028113810115110581F482EE0F900F90BE
:102EAE00DF91CF911F910F91FF90EF90DF90CF9018
:102EBE00BF90AF909F908F9008954481558141159A
:102ECE00510559F3CB01840F951F9C0121503109F7
:102EDE00D9012C912D3789F04F5F5F4F4483558375
:102EEE002DE7DC012C93448155814115510509F4E0
:102EFE00DEC06081718102811381DB018C918E3283
:102F0E0009F4DEC0DB01119680E090E005C02D9142
:102F1E002E3209F4C7C0C7017C012FEFE21AF20A64
:102F2E00E416F506A0F36A01CE18DF089601205CC0
:102F3E003F4F220F331F220F331FABEABAEA0E9414
:102F4E001958969587959C012D5F3F4F041B150BC5
:102F5E000217130710F484EEA1CF4F0180819181E7
:102F6E00BC016E0D7F1DA601800F911F0E94885619
:102F7E00D40112962D913C91139729833A83ED91AA
:102F8E00FC911197AF014E0D5F1D14968D919C9182
:102F9E001597B901681B790BCB010BE211E39E016A
:102FAE002F5F3F4FB6018E0F9F1F0E94BE158111DE
:102FBE0075CF69817A816E0D7F1DD40114966D9344
:102FCE007C93159712962D913C911397C9018855B4
:102FDE0091096817790708F0BECF8D919C91205208
:102FEE003109AC01420F531F0E947B4A811156CF0B
:102FFE00F4016081718182819381AC014054510949
:10300E00460F571F8097680F791FC5010E94C5464E
:10301E00811144CFD4012D913C91119714968D912D
:10302E009C911597AC014F5F5F4F14964D935C9337
:10303E001597F901E80FF91F2EE2208312962D91B4
:10304E003C91139714964D915C911597C901841B71
:10305E00950B89839A83ED91FC914E0F5F1FC901E9
:10306E00805491099E012F5F3F4F60E470E08E0FF8
:10307E009F1F0E94BE15F4012481358189819A819A
:10308E00820F931F84839583228133818217930746
:10309E0008F061CF20813181F901E80FF91F10820C
:1030AE0080E0FCCE7C01B2E0EB0EF11C3CCF028145
:1030BE001381C12CD12C28E530E0E12CF12C46CF28
:0830CE00EE24E394F12C2FCF56
:1030D600CF92DF92FF920F931F93CF93DF93CDB7DB
:1030E600DEB72C97CDBFDEBF8091722B882309F403
:1030F600C6C0FF24F3948091722B81508093722B6B
:10310600AE01475F5F4F60E770E180E090E00E94AC
:10311600065C8111F5CF898580FFF2CF80E00E94A1
:10312600EC5789859A85AB85BC859C01AD012E7FC0
:1031360029873A874B875C8760E770E180E090E0FB
:103146000E94085C8111DCCFF092712B89859A85EB
:10315600AB85BC85B695A79597958795B695A795A2
:10316600979587956C012FE0D222C114D10441F2C4
:1031760019821A821B821C82AE014F5F5F4F64E880
:1031860070E180E090E00E94065C811184C0698154
:103196007A818B819C816093732B7093742B8093BF
:1031A600752B9093762B860120E030E00093772BE9
:1031B6001093782B2093792B30937A2B04E010E030
:1031C60020E030E0AE014B5F5F4F0E94CF2D2F8194
:1031D60038852F83388781115EC08F819885C81600
:1031E600D90649F08F8198859601281B390B253021
:1031F600310508F050C08D818130F9F08D81823023
:1032060009F452C08D81843009F459C08D8186300D
:1032160009F460C08D81873009F467C08D818530DF
:1032260009F06ECF8091872B9091882B892BF9F02E
:10323600E091872BF091882B0AC080917B2B90918F
:103246007C2B892BA1F0E0917B2BF0917C2B6F815D
:1032560078858E8109811A812B813C81A90198018B
:10326600285F3F4F4F4F5F4F685071090995809116
:10327600712B811114C08091722B81113CCF80E09B
:103286002C96CDBFDEBFDF91CF911F910F91FF909E
:10329600DF90CF90089581E00E94EC5731CF0E94D5
:1032A600504C81112DCFE7CF80917D2B90917E2BB5
:1032B600892BE9F2E0917D2BF0917E2BC8CF80918E
:1032C6007F2B9091802B892B91F2E0917F2BF091AF
:1032D600802BBDCF8091852B9091862B892B39F23F
:1032E600E091852BF091862BB2CF8091812B909126
:1032F600822B892B09F4BBCFE091812BF091822B95
:02330600A6CF50
:103308002F923F924F925F926F927F928F929F92ED
:10331800AF92BF92CF92DF92EF92FF920F931F93DB
:10332800CF93DF93CDB7DEB72A97CDBFDEBF2B0192
:103338003C011A0149013AE0B32E2EC06401E12C88
:10334800F12CA12C00E010E09801B301A20187EC58
:103358000E943928813069F161E070E080E090E0F6
:103368000E947656A12CC12CD12C760100E010E0E9
:10337800980140E050E0BA018FEC0E9439288FECA8
:103388000E941C3661E070E080E090E00E94765672
:10339800BA94BB2009F460C021E08216910471F64A
:1033A80092E0C92ED12CE12CF12C22E0822E912C16
:1033B800C8CF87EC0E941C36813071F61F821886B0
:1033C8008401C12CD12C36C0013080E2180708F4E2
:1033D8005AC081EF8A872AE030E02C0F3D1F2983ED
:1033E8003A831B821C8281E090E08D839E83BE011C
:1033F8006F5F7F4F83E00E94B43E8111ADCFC10162
:103408008C0D9D1D89839A831B821C82ED82FE820E
:10341800BE016F5F7F4F83E00E94B43E81119CCF55
:1034280080918031882389F1CE0CDF1C0E191F0989
:1034380009F441C07801013030E2130718F0E12C9B
:1034480080E2F82EC114D10409F4BECF013090E215
:103458001907C8F082EFBECF8AEF2A96CDBFDEBF2C
:10346800DF91CF911F910F91FF90EF90DF90CF9058
:10347800BF90AF909F908F907F906F905F904F908C
:103488003F902F90089583EFA5CF27E030E02C0FD1
:103498003D1F29833A831B821C8282E090E08D8342
:1034A8009E83BE016F5F7F4F83E00E94B43E8823F6
:1034B80009F4BACF51CF8091803181112CC082E0BC
:1034C80090E012E019821A8227E030E02C0F3D1FAD
:1034D8002B833C838D839E83BE016F5F7F4F83E088
:1034E8000E94B43E811138CF812F90E0E6E0F0E0F1
:1034F800EC0FFD1FE80FF91F208121112DCFE5E00A
:10350800F0E0EC0FFD1FE80FF91F8081833C09F004
:0E35180023CF80E0A2CF83E090E013E0D3CF7A
:103526002F923F924F925F926F927F928F929F92CD
:10353600AF92BF92CF92DF92EF92FF920F931F93BB
:10354600CF93DF93CDB7DEB7CC53D140CDBFDEBF2F
:103556008E01035D1E4F20E1D8011D922A95E9F7E1
:103566001E01B9EC2B0E311C24E6F10111922A95AD
:10357600E9F79E012F5F3F4F690128ECD6011D92A6
:103586002A95E9F708967C0141E050E0B8010E94CF
:103596004D40B8016F5F7F4F41E050E0C7010E9488
:1035A6004D40F801828187FF15C041E050E0B80127
:1035B6006D5F7F4FC7010E944D40D80113968C91D5
:1035C60087FF08C041E050E0B8016C5F7F4FC7013C
:1035D6000E944D40F8013196412C512C3201812C2C
:1035E600912C54018394A191AF77B0E0A501940189
:1035F6000E944259460E571E681E791ED501C40107
:10360600880F991FAA1FBB1F880F991FAA1FBB1FD0
:10361600880F991FAA1FBB1F880F991FAA1FBB1FC0
:10362600880F991FAA1FBB1F880F991FAA1FBB1FB0
:103636004C015D01880C991CAA1CBB1CDF0111976B
:103646008C9187FDD0CF42E050E0B8016B5F7F4F91
:10365600C7010E944D40F801278230864581568178
:10366600542745275427B101C7010E944D40D80170
:1036760015968D919C9116979827892798274EEF36
:103686005FEF6FEF7FEF481B590B61097109440D1E
:10369600551D661D771D1C96CD92DC921D97B601B1
:1036A600C7010E944D400E94725B6C01009781F039
:1036B600F801A780B08445815681542745275427B1
:1036C600B501DC018D919C910E94BF58892BD9F0E0
:1036D600C7010E94715A83E0C45CDE4FCDBFDEBFD6
:1036E600DF91CF911F910F91FF90EF90DF90CF90D8
:1036F600BF90AF909F908F907F906F905F904F900C
:103706003F902F900895F80164857585D60112962D
:0C371600ED91FC911397C5010995DACFE5
:103722004F4B0D00646562756720706172616D6553
:10373200746572206D75737420626520626574779A
:1037420065656E203020284C656173742920616E96
:1037520064203420284D6F737429200D00312E31DE
:103762002E31007625730D0A0400322E31002573A6
:103772000D0A0400556E6B6E6F776E2E0D0A0400F3
:103782004572726F722067657474696E67206B652B
:10379200792E0D0A04002C002564004572726F72A6
:1037A2002E2057692D466920636F6D6D616E64200E
:1037B200666F726D61742069732077696669203C57
:1037C200737369643E5B2C3C706173733E2C5B6166
:1037D200757468547970655D5D0D0A04004F4B0D78
:1037E2000A04007265736574002D2D2D2D2D2D2D6B
:1037F2002D2D2D2D2D2D2D2D2D2D2D2D2D2D2D2DF7
:103802002D2D2D2D2D2D2D2D2D2D2D2D2D2D2D2DE6
:103812002D2D2D2D2D0D0A556E6B6E6F776E20633B
:103822006F6D6D616E642E204C697374206F66201B
:10383200617661696C61626C6520636F6D6D616E4A
:1038420064733A0D0A72657365740D0A646576696C
:1038520063650D0A6B65790D0A7265636F6E6E653D
:1038620063740D0A76657273696F6E0D0A636C6913
:103872005F76657273696F6E0D0A77696669203CBF
:10388200737369643E5B2C3C706173733E2C5B61A5
:10389200757468547970655D5D0D0A64656275675B
:1038A2000D0A2D2D2D2D2D2D2D2D2D2D2D2D2D2D89
:1038B2002D2D2D2D2D2D2D2D2D2D2D2D2D2D2D2D36
:1038C2002D2D2D2D2D2D2D2D2D2D2D2D2D2D0D0A69
:1038D20004000D0A436F6D6D616E6420746F6F207A
:1038E2006C6F6E670D007265636F6E6E6563740058
:1038F20077696669006B657900646576696365005E
:10390200636C695F76657273696F6E007665727358
:0A391200696F6E006465627567005E
:10391C008F929F92AF92BF92CF92DF92EF92FF92D3
:10392C000F931F93CF93DF93EC010E811F8128859A
:10393C003985A0915131B09152311C821D82409138
:10394C003B3150913C3160913D3170913E310417C7
:10395C0015072607370798F1109709F496C01696A5
:10396C004D915D916D917C91199704171507260760
:10397C00370758F48AC046815781608571850417D2
:10398C0015072607370738F0DF011496ED91FC91E7
:10399C001597309781F7EC83FD831496CD93DC93C8
:1039AC00159780E0DF91CF911F910F91FF90EF90D1
:1039BC00DF90CF90BF90AF909F908F900895C09064
:1039CC003B31D0903C31E0903D31F0903E318091D4
:1039DC007731882339F1409148015091490160E0D9
:1039EC0070E08090373190903831A0903931B090A0
:1039FC003A31481559056A057B0520F44FEF5FEF06
:103A0C0060E070E08090373190903831A09039317F
:103A1C00B0903A31C818D908EA08FB08C40ED51E74
:103A2C00E61EF71E109791F0FD01468157816085C7
:103A3C0071854C195D096E097F0946835783608730
:103A4C0071870480F581E02D309779F740913B31F7
:103A5C0050913C3160913D3170913E314C195D0972
:103A6C006E097F0940933B3150933C3160933D315B
:103A7C0070933E312F5F3F4F0C191D092E093F09E2
:103A8C000E831F832887398767CF109237311092A6
:103A9C0038311092393110923A318091410181FDC7
:103AAC00FCCF109248011092490181E080934301B0
:103ABC008091410181FDFCCF4091373150913831DB
:103ACC006091393170913A314093480150934901DA
:103ADC0081E0809343018BE2A536B80751F09A2F11
:103AEC008B2F9C838D83C0935131D093523181E0C5
:0C3AFC0059CF9091692B80916A2BF3CF79
:103B08008F929F92AF92BF92CF92DF92EF92FF92E5
:103B18000F931F93CF93DF93CDB7DEB7CC56D10960
:103B2800CDBFDEBF4C01D62EF42E590181E04817D7
:103B380041F02115310509F46EC092E0491709F4E6
:103B48008EC08FEF8D0D803208F065C0C8010197D7
:103B58000E9720F00F3F110509F05DC02D2D30E0C4
:103B680040E050E0B401CE01895B9F4F0E94FB57B3
:103B7800E7E4F0E0EC0FFD1FED0DF11D1082279634
:103B88000EAF1FAF279781E0EE20A9F1A9968FAF5E
:103B9800A9972396FFAE2397E3E0FE1671F192E012
:103BA800F91609F47AC0F4E0FF1609F44DC091E063
:103BB800F91231C0FE0131965F01C12CD12CE12CE4
:103BC800F12C00E010E02CE630E0A50168E281E08D
:103BD8000E941E14C459DF4FCDBFDEBFDF91CF91C5
:103BE8001F910F91FF90EF90DF90CF90BF90AF9013
:103BF8009F908F90089580E0C9CFF5018081815012
:103C08008983843040F421818FEF820F8A83822F49
:103C18008F7E8B3011F084EFDDCF30E040E050E054
:103C2800B5016E5F7F4FCE0103960E94FB57F501E9
:103C38008181E3E0F0E0EC0FFD1FE80FF11D108239
:103C4800CE0101965C01B9CF2EE330E040E050E0B0
:103C5800B501CE0101965C010E94FB57AECFC901A8
:103C68000E940A588034910509F06BCFF50195013F
:103C7800205C3F4F0BC096EC980F973060F287544A
:103C88008A3148F2E217F30709F45BCF819190ED8E
:103C9800980F973380F384EF9DCFC5010E940A588F
:103CA8009C01215031092034310508F0B4CF2E5F32
:103CB8003F4F40E050E0B501FE0131965F01CF0172
:023CC800CBCF60
:103CCA002F923F924F925F926F927F928F929F9222
:103CDA00AF92BF92CF92DF92EF92FF920F931F9310
:103CEA00CF93DF93CDB7DEB7A597CDBFDEBF19A2BD
:103CFA001AA28330B8F082EEA596CDBFDEBFDF915F
:103D0A00CF911F910F91FF90EF90DF90CF90BF90CE
:103D1A00AF909F908F907F906F905F904F903F9061
:103D2A002F900895823009F479C00115110509F41C
:103D3A0073C021153105F9F268012CA33DA35A017C
:103D4A001B018BA3AE014F5D5F4F0E940544811199
:103D5A00D3CF29A13AA1C8018A0D9B1D281739077B
:103D6A0050F2250156944794529442947FE0472298
:103D7A00452457224524E0E2FE2E612C712C812C29
:103D8A00912C27C0B501681B790B8F2D90E0861BFB
:103D9A00970B8601081919098017910708F48C01F5
:103DAA0081E090E08C0F9D1F680F791FA8018CA1FC
:103DBA009DA1880D991D0E941E5A800E911E90E2A7
:103DCA00F91609F44CC09FEF691A790A8C149D04FC
:103DDA0018F580E2F81639F1EF2C8E010F5F1F4FAC
:103DEA00262D442DB1018BA10E944035811184CF2B
:103DFA00C201880F991F880F991F880F991F860D76
:103E0A00971D880F991F880F991F8A159B0508F41B
:103E1A00B9CF60E070E0B9CF80E06ECF6031710554
:103E2A0008F069CF82CF89A19AA19201220F331F8C
:103E3A0022953295307F3227207F3227821B930BBF
:103E4A00809750F63501680C791C769467947694BD
:103E5A00679497E06922772454E0F52EBDCF8FEF5F
:063E6A00481A580AB3CF0C
:103E70002F923F924F925F926F927F928F929F927A
:103E8000AF92BF92CF92DF92EF92FF920F931F9368
:103E9000CF93DF93EC018B0129013A018C819D8145
:103EA000AE81BF8170E4C72ED12CE12CF12CC81A51
:103EB000D90AEA0AFB0A2C153D054E055F0510F4E8
:103EC00069017A010896A601B8018C0F9D1F0E9416
:103ED0001E5A8C819D81AE81BF81840D951DA61DCA
:103EE000B71D80349105A105B105B8F48C839D837D
:103EF000AE83BF83DF91CF911F910F91FF90EF9021
:103F0000DF90CF90BF90AF909F908F907F906F90F9
:103F10005F904F903F902F9008951E0188E0280EEB
:103F2000311C21E030E040E050E0B101CE010E94C0
:103F300041014C185D086E087F085301420186E07C
:103F4000B694A794979487948A95D1F7B8016C0D8D
:103F50007D1DA5019401CE010E944101D501C4013E
:103F60000196A11DB11D880F991FAA1FBB1F880FA5
:103F7000991FAA1FBB1F880F991FAA1FBB1F880F5D
:103F8000991FAA1FBB1F880F991FAA1FBB1F880F4D
:103F9000991FAA1FBB1F488159816A817B81840FA9
:103FA000951FA61FB71F88839983AA83BB83B3017C
:103FB000A2014F735527662777274C835D836E8355
:103FC0007F8300249694879407949694879407940B
:103FD000982C802CC80CD91CC8018C0D9D1DBC01CF
:103FE000C101DF91CF911F910F91FF90EF90DF9072
:103FF000CF90BF90AF909F908F907F906F905F9089
:0A4000004F903F902F900C941E5A31
:10400A00CF92DF92EF92FF920F931F93CF93DF939A
:10401A00CDB7DEB72697CDBFDEBF1B821C821D82BD
:10402A001E8268E977E70E94955B89839A830097E5
:10403A0009F46BC09E012F5F3F4F790100E0F70141
:10404A00819391937F010F5F68E977E780E090E0C1
:10405A000E94955B009709F47FC0033081F7E980DD
:10406A00FA80E114F10409F48FC0CB80DC808D81E1
:10407A009E81C114D10409F45CC0009709F478C088
:10408A000E94C35B082F013009F456C0F0F10430D6
:10409A00E0F5CB80DC8010E04EE150E0B70188E02B
:1040AA009BE20E9428584EE150E0B60187E29BE26B
:1040BA000E9428581F930F938AE997E79F938F933B
:1040CA0086E49BE29F938F930E94A4500F900F90D7
:1040DA000F900F900F900F908FED97E79F938F930C
:1040EA000E94A4540E94515A0F900F9081113BC014
:1040FA002696CDBFDEBFDF91CF911F910F91FF9022
:10410A00EF90DF90CF900C94CE578DE997E79F936D
:10411A008F930E94A4540F900F902696CDBFDEBFB6
:10412A00DF91CF911F910F91FF90EF90DF90CF9089
:10413A000895009709F0A4CF4EE150E0B70188E056
:10414A009BE20E9428581092272B81E390E08093EB
:10415A00462B9093472BC0CFE980FA80E114F104F3
:10416A0009F083CF90CF0E94CA5B0E94BC56C0CF91
:10417A00C6010E94C35B9EEF980F923030F28130E5
:10418A00D9F202E010E088CFCB80DC8003E010E0B7
:02419A0083CFD1
:10419C000F931F93CF93DF93CDB7DEB72C97CDBF83
:1041AC00DEBF8B018B3109F46EC0D0F18C3211F172
:1041BC008233C1F48CEA9BED0E94A34E811112C094
:1041CC0080911A2C80FF09C087E990E30E94C655A4
:1041DC0080911A2C8E7F80931A2C80911A2C8B7FB5
:1041EC0080931A2C2C96CDBFDEBFDF91CF911F91FF
:1041FC000F910895DB018C91813009F462C0882302
:10420C0009F481C0E0914B31F0914C31309751F36E
:10421C0080911A2C80FDE6CFD8018C910995E2CFC4
:10422C00893001F7FB01ED59FF4F80818111DACF05
:10423C00319780811F928F9380EC9BED9F938F938E
:10424C0086E49BE29F938F930E94A450B80188E070
:10425C009BE20E94185BB8016F5D7F4F87E29BE287
:10426C000E94185B81E080936B3140E050E0BA0112
:10427C0085EB90E30E945F370F900F900F900F909B
:10428C000F900F90AFCFFB0180819181009709F4C3
:10429C00A9CF24812B8325812A83268129838C56BF
:1042AC0097408F839887828181508E8383818C8302
:1042BC001B861C86CE0101960E945D3E0E94E6592B
:1042CC0091CF80916B3181110AC080911A2C826040
:1042DC0080931A2C0E943D560E94205993CF85EB57
:1042EC0090E30E94C65510926B3180E00E946F588B
:1042FC0044EF51E060E070E08BEA90E30E945F379E
:10430C000E940859E2CF42E350E060E070E087E998
:10431C0090E30E945F3780911A2C816080931A2C55
:02432C0071CF4F
:10432E008F929F92AF92BF92CF92DF92EF92FF92B7
:10433E000F931F93CF93DF93EC018B014C815D8123
:10434E006E817F81C880D980EA80FB80C40ED51E25
:10435E00E61EF71EC882D982EA82FB82CC0CDD1CD7
:10436E00EE1CFF1CCC0CDD1CEE1CFF1CCC0CDD1C53
:10437E00EE1CFF1C87EF9FEFAFEFBFEF841B950B7B
:10438E00A60BB70B4C015D012FE382229924AA24C0
:10439E00BB24DB01CA010196A11DB11D8C839D8337
:1043AE00AE83BF83FE01E40FF51F20E82087A40132
:1043BE004C5F5F4F089660E070E08C0F9D1F0E946F
:1043CE00115B8C819D81AE81BF81880D991DAA1DC7
:1043DE00BB1DAC01BD014C5F5F4F6F4F7F4FFE01A8
:1043EE00E40FF51FF086AC01BD014B5F5F4F6F4FC1
:1043FE007F4FFE01E40FF51FE086AC01BD014A5F61
:10440E005F4F6F4F7F4FFE01E40FF51FD086AC015B
:10441E00BD01485F5F4F6F4F7F4F4C835D836E834F
:10442E007F830796A11DB11DFE01E80FF91FC086FF
:10443E009A01AB0166E056954795379527956A9593
:10444E00D1F7BE01685F7F4FCE010E944101DE01B0
:10445E00A857BF4F9801C855DF4F4D915D916D9193
:10446E007C911397C9010496FC0142934D915D9185
:10447E006D917C911397452F562F672F77274D936C
:10448E005D936D937C931397E217F30771F7149670
:10449E009C01CA17DB0709F7DF91CF911F910F918E
:1044AE00FF90EF90DF90CF90BF90AF909F908F9046
:0244BE0008955F
:1044C0000F931F93CF93DF9300D000D0CDB7DEB70B
:1044D000082F0E94B024DC01CB019F70AA27BB27C4
:1044E000803A9340A105B10550F410E0812F249645
:1044F000CDBFDEBFDF91CF911F910F910895AE0127
:104500004F5F5F4F60E174E180E090E00E94065CE5
:10451000182F8111EBCF89819A81AB81BC819F7863
:10452000A878B87F9C01AD01306141615160298359
:104530003A834B835C8360E174E180E090E00E9409
:10454000085C20E030E0A90168E072E081E090E0E2
:10455000002309F449C00E94085C2BEA30E040E0E7
:1045600050E06CE072E081E090E00E94085C21E0A5
:1045700030E040E050E064E172E081E090E00E94D1
:10458000085C20E030E0A9016CE172E081E090E09D
:104590000E94085C21E830E040E050E064E072E016
:1045A00081E090E00E94085C68E172E081E090E0C8
:1045B0000E94045C6130710581059105A9F789812C
:1045C0009A81AB81BC819F78A878B87F9C01AD01AE
:1045D000416029833A834B835C8360E174E180E02E
:1045E00090E00E94085C82CF0E94085C29EB30E0DA
:1045F00040E050E06CE072E081E090E00E94085CF6
:1046000021E030E040E050E064E172E081E090E0E1
:104610000E94085C20E030E0A9016CE172E081E0DA
:1046200090E00E94085C21E830E040E050E064E067
:1046300072E081E090E00E94085C68E172E081E055
:1046400090E00E94045C6130710581059105A9F735
:02465000B6CFE3
:10465200A8E0B0E0EFE2F3E20C94B2538B01FC016C
:10466200608171818281938120E831E541E050E0EF
:104672000E94825069017A012CE330E040E050E070
:104682000E94355429833A834B835C8389819A81C2
:10469200AB81BC81F80160836CE370E00E9402563A
:1046A200DC01CB01F801A1838283C601069667E093
:1046B20070E00E94EE5584832DEA3EE840E050E02F
:1046C200C701B6010E94355429833A836D837E83E4
:1046D2008F83988789819A8124E6289F6001299F88
:1046E200D00C11246D817E818F81988525EB35E078
:1046F20040E050E00E94355429833A836D837E83E3
:10470200E980FA80EE0CFF1CEE0CFF1CEC0CFD1C89
:104712008D819E81F5E6EF16F10410F0019604C03A
:1047220024E6E216F10419F021E030E002C020E0B4
:1047320030E0A90144595E4F4817590768F46DE605
:1047420071E0821B930B0E940256DC01CB01E80E42
:10475200F91ECD0120E030E044E6E40EF11CF80140
:10476200E682F78280879187255C3F4F8217930705
:1047720048F46FE170E00E940256DC01CB01F801BF
:10478200858322C069E970E0821B930B0E94025666
:10479200DC01CB01F82EFF0CFF0CF80E6DE370E08C
:1047A200CD010E940256DC01CB01E82EEE0C6FE136
:1047B20070E0CD010E940256DC01CB0122E0280FFD
:1047C200F20EFE0CF801F582A383F801128613861D
:0E47D20083818F5F83832896E8E00C94CB539D
:1047E000CF92DF92EF92FF9280E090E00E9400571C
:1047F0006B017C010E94515A81117BC080911A2C5F
:1048000081FF75C06B9882FF70C068980E94D65B6C
:10481000882309F464C06EE17CE284E00E94035BBB
:1048200090911F2C292F207E2093162C8091202CD4
:1048300081708093172C9F7190930F2C203209F474
:1048400075C0203409F478C0203809F477C081306D
:1048500009F476C08091132C8093142C8091122C33
:104860008093132C8091112C8093122C8091102C0A
:104870008093112C9093102CE1E1FCE245E15CE285
:1048800020E030E0290F311D4E175F0731F0919184
:10489000290F311D4E175F07D1F72093182C309345
:1048A000192CC90165E070E00E94025660930E2C3D
:1048B00060930D2C80918431811102C00E94EA33F3
:1048C00080911B2C90911C2C0E947C5B64E670E014
:1048D00080E090E0FF90EF90DF90CF9008950E94ED
:1048E000515A8823D9F16A9896CF689A8FCF6B9ADC
:1048F0008ACF2091433130914431409145315091DC
:104900004631C701B6010E949A5B161617061806B3
:1049100019060CF073CFC0924331D0924431E0922B
:104920004531F09246310E940A4668CF85E00E94E8
:10493000075490910F2C8ECF8AE0F9CF8FE0F7CFFC
:104940008093843180E090E00E947C5B80E00E9454
:10495000075482EE91EB0E944B45EBCF6A9A5BCFF6
:10496000CF92DF92EF92FF92CF93DF9300D000D0EF
:10497000CDB7DEB7C0903F31D0904031E0904131AB
:10498000F0904231C114D104E104F10461F0C70197
:10499000B6012496CDBFDEBFDF91CF91FF90EF909F
:1049A000DF90CF9008954FE351E360E070E180E045
:1049B00090E00E94065C882349F010923F311092EB
:1049C00040311092413110924231E1CFAE014F5F40
:1049D0005F4F64EF73E180E090E00E94065C81111C
:1049E000ECCF80913F3190914031A0914131B09115
:1049F0004231803A22E0920720E1A207B105E1F0BE
:104A0000803B22E0920720E1A207B10529F1803F17
:104A1000910520E1A207B105E1F16C017D0120EFD4
:104A2000E22285E0E82AC0923F31D0924031E09204
:104A30004131F0924231ABCF89819A81AB81BC8107
:104A40000197A105B105E9F021EAC22E22E0D22E9C
:104A500025E1E22EF12CE7CF89819A81AB81BC81DF
:104A600083309105A105B10539F10497A105B10580
:104A700059F132EBC32E32E0D32E35E1E32EF12C87
:104A8000D2CF40EAC42E42E0D42E45E1E42EF12CF0
:104A9000CACF4FE351E360E070E08BE390E00E9407
:104AA000065C81118ACFC0903F31D0904031E090B8
:104AB0004131F0904231B3CF90EBC92E92E0D92E24
:104AC00095E1E92EF12CAFCF81EBC82E82E0D82EF4
:084AD00085E1E82EF12CA7CFCF
:104AD8009F92AF92BF92CF92DF92EF92FF920F9385
:104AE8001F93CF93DF93F12CC2E4DEEE0BEE17E7B2
:104AF8000E94EE5A8823B1F00E9476538D3011F14E
:104B08008A30B9F1E0916331E43678F591E09E0F8F
:104B180090936331F0E0E251F24D80830E94EE5AA7
:104B28008111EACF62E370E080E090E0DF91CF91FD
:104B38001F910F91FF90EF90DF90CF90BF90AF90B3
:104B48009F900895E0916331F0E0E251F24D1082B8
:104B580090916231911117C080936131FF20F9F073
:104B68001092633110926231C3CF81E08093623139
:104B7800BFCFE0916331F0E0E251F24D10829091A5
:104B88006231992329F084ED98E70E944B45E8CFDC
:104B9800909161319D3001F780936131E1CF60E2FE
:104BA80070E08EEE9DE20E944D595C01009719F06D
:104BB800DC011D925D01EEEEFDE201900020E9F7B7
:104BC8003197EE5EFD429E2E82E2C82E8EEED82EE2
:104BD80095E0E92EF12C65EE77E711C0B4E0CB0E35
:104BE800D11CCC15DD05F9F0F60160817181FB015E
:104BF80001900020E9F731977F01E61AF70A8EEE57
:104C08009DE20E94275A8111E9CF9E10E7CFD60175
:104C18001296ED91FC911397309701F3C501099510
:104C28008091623108C01F930F930E94A454809111
:104C380062310F900F90FF24F394882309F490CFEA
:024C4800A2CFF9
:104C4A003A20426173653634206368617273206169
:104C5A006674657220656E642070616464696E674B
:104C6A00202D2D205374617475733A2025303258E3
:104C7A000D0A003A206465636F6465642062756694
:104C8A0066657220746F6F20736D616C6C202D2DB8
:104C9A00205374617475733A20253032580D0A0016
:104CAA000D00253032582000253032580025730077
:104CBA003A204E756C6C20696E7075742070617242
:104CCA00616D65746572202D2D205374617475733E
:104CDA003A20253032580D0A003A20496E76616C26
:104CEA006964206261736536342063686172616346
:104CFA00746572202D2D205374617475733A2025C2
:104D0A003032580D0A003A20496E76616C69642087
:104D1A006E756D626572206F6620626173653634E6
:104D2A00206368617273202D2D205374617475732A
:104D3A003A20253032580D0A003A206E65776C69A0
:104D4A006E652072756C65735B335D206D75737467
:104D5A00206265206D756C7469706C65206F6620C1
:104D6A0034202D2D205374617475733A2025303206
:104D7A00580D0A003A204C656E677468206F6620E9
:104D8A00656E636F64656420627566666572207419
:104D9A006F6F20736D616C6C202D2D2053746174BC
:0B4DAA0075733A20253032580D0A00C6
:014DB50001FC
:104DB6002F923F924F925F926F927F928F929F9225
:104DC600AF92BF92CF92DF92EF92FF920F931F9313
:104DD600CF93DF9300D000D0CDB7DEB7382E6B016E
:104DE600242E280139012BE08202F0011124E35719
:104DF600F44D80819181892B39F082819381892BB1
:104E060019F080858130B1F02496CDBFDEBFDF91E9
:104E1600CF911F910F91FF90EF90DF90CF90BF90B1
:104E2600AF909F908F907F906F905F904F903F9044
:104E36002F900895DB011496ED92FC9215975F0171
:104E46004F01B2E08B0E911C3896E983FA83D401A8
:104E56008D919C911197F701E81BF90B1E161F0601
:104E66000CF055C02D913C912B833C8300E0D5017D
:104E76004D915C912B813C81C301B2010E94352A80
:104E86008111C2CFF50180819181D6018D939C93CA
:104E96001197EB81FC811296ED93FC931397149670
:104EA6008D919C9115978E1B9F0B14968D939C93B9
:104EB60015978091062C9091072C892B41F0E09153
:104EC600062CF091072CA601622D832D09952B81C6
:104ED6003C81E21AF30A420E531E611C711CA98121
:104EE600BA818C9181110EC0EF2809F48DCF01E0B3
:104EF60020E030E040E050E060E070E0CB010E944E
:104F0600352A82CFE114F10409F0A1CF7DCFEB82DF
:064F1600FC8201E0ACCFBB
:104F1C00CF93DF93DC01EAECFFE28DE1EF01199214
:104F2C008A95E9F79091CA2F9F7090619093CA2F40
:104F3C0084E08093D02F9DE49093D12F91E59093B2
:104F4C00D22F94E59093D32F9093D42F8093D52F79
:104F5C0057966D917C9158976115710539F453965C
:104F6C008D919C915497892B09F47BC082EC809392
:104F7C00D62F1D968D919C911E979827892798273F
:104F8C008093D72F9093D82F5196ED91FC915297F7
:104F9C00E093DB2FF093DC2FEF0109900020E9F771
:104FAC0021979E012E1B3F0B2093D92F3093DA2F84
:104FBC004091D62F46FF0CC059968D919C915A97D3
:104FCC008093E32F9093E42F6093E12F7093E22F63
:104FDC0047FF45C055968D919C9156978093DF2F36
:104FEC009093E02F53966D917C9154976093DD2FA5
:104FFC007093DE2F8091E12F9091E22F860F971FF7
:10500C000496820F931F0C968093E52F9093E62FB6
:10501C00407CB1F08091E12F9091E22F9827892765
:10502C0098278093E12F9093E22F8091DD2F909120
:10503C00DE2F9827892798278093DD2F9093DE2FDA
:10504C003227232732272093D92F3093DA2F81E070
:10505C008093743180936D31DF91CF910895C901A4
:06506C00D2CF82E084CFE8
:10507200AF92CF92DF92EF92FF920F931F93CF9353
:10508200DF93CDB7DEB72F97CDBFDEBF898390E028
:10509200FC01E15CF109EF30F10578F090E0892F35
:1050A2002F96CDBFDEBFDF91CF911F910F91FF9061
:1050B200EF90DF90CF90AF900895E15BFF4F0C949B
:1050C2005D5B1A821B821C8285E09091803199235C
:1050D200A9F081509E012F5F3F4F90E02A873B87C6
:1050E2001C861D868E879F87BE01665F7F4F83E089
:1050F2000E94B43E91E0882391F2D0CF90E0AC01BF
:10510200415051096A01052E000CEE08FF0821E00A
:10511200C21AD108E108F1089E012F5F3F4FD90161
:10512200EFE76D91F0E0EE0FFF1FE627EE57FE4F1F
:10513200E49161E0C61AD108E108F1086FEFC616E2
:10514200D606E606F60669F7D901A40FB51FEE0FDB
:10515200EC93C4CF6A835B834C83ED82DE82CF8281
:1051620088E0B3CF6A835B834C83DD82CE8287E0A3
:10517200ACCFBB27A72F962F852FA11080688A83DB
:105182004B833C832D831E830F8388E09ECFBB27F6
:10519200A72F962F852FA11080688A834B831C82AC
:1051A20093CF8FEF8A838B838C838ECF6A835B83CB
:1051B2004C833D832E831F83088789E086CF6A83D1
:0651C2005B834C8381CFEA
:1051C800A0E0B0E0EAEEF8E20C94AE53EC01EE8118
:1051D800FF818F0104561109B9F0CF018556910955
:1051E8006C0197FF03C023E0C20ED11CD594C7946D
:1051F800D594C7946CE97FEF0E940256C60ED71E5D
:105208008FEFC81AD80A02C0C12CD12C2DE631E084
:10521800D8010E940A5B0D2C000CEE08FF08C60E90
:10522800D71EE81EF91E8B81082E000C990B8C01E5
:10523800015011092D8122302CF4222379F1015ECD
:105248001F4F2CC0CF018459984F0E941656282F03
:1052580030E0255C3F4F200F311F8D81082E000C58
:10526800990B02978530910514F027563F4F65E05A
:1052780070E00E940256AC0197FF02C04F5F5F4F7B
:10528800559547959DE3949F8001959F100D112496
:10529800020F131F80FF02C0015E1F4FC801110FCC
:1052A800AA0BBB0B9C01AD012C0D3D1D4E1D5F1DB6
:1052B80060E871E581E090E00E9491574B015C0144
:1052C800AA810A2E000CBB0B20E13EE00E940A5B7B
:1052D8006B017C01A9810A2E000CBB0B2CE330E08A
:1052E8000E940A5BC60ED71EE81EF91E6881862F2B
:1052F800660F990BAA0BBB0B8C0D9D1DAE1DBF1D18
:10530800BC01CD01680D791D8A1D9B1DCDB7DEB787
:06531800ECE00C94C75309
:10531E00BF92CF92DF92EF92FF920F931F93CF9394
:10532E00DF9300D000D0CDB7DEB7029721F4613005
:10533E0091F0623081F1BB24BA948B2D2496CDBFAF
:10534E00DEBFDF91CF911F910F91FF90EF90DF9015
:10535E00CF90BF90089597E0F92E27E030E05BE004
:10536E00E52EB0908231009182318091823190E0B1
:10537E000196B9010E94025680938231E09E80010F
:10538E001124F801E357F44D8085882301F1FA9436
:10539E00F110E7CFD0CF84E050918131009181316F
:1053AE009BE0099F800111240652144D20918131FA
:1053BE0030E02F5F3F4F2370332720938131F80168
:1053CE009085992309F446C0815031F7B4CF8F01EF
:1053DE00B7FCB3CFF42E2BE030E040E050E060E0BD
:1053EE00C8010E94A55881E0F801808780915D3147
:1053FE0090915E31019680935D3190935E318091F4
:10540E005D3190915E31892B49F480915D3190919F
:10541E005E31019680935D3190935E3180915D3166
:10542E0090915E31F80184839583F0FE86CFB98228
:10543E0081E28187C12CD12CE12CF12C00E010E00F
:10544E0024E030E0AE014F5F5F4F60E582E00E94E6
:0C545E001E1473CF87E0B82EB50EBACF35
:10546A004F925F926F927F928F929F92AF92BF926A
:10547A00CF92DF92EF92FF920F931F93CF93C02F99
:10548A00611571058105910509F476C0411551052B
:10549A0009F472C02115310509F46EC0890120E0B2
:1054AA0030E0C090772BD090782BE090792BF09059
:1054BA007A2BC016D106E206F30608F470C0C09033
:1054CA00732BD090742BE090752BF090762B6C1583
:1054DA007D058E059F0508F462C06B017C01C00E34
:1054EA00D11EE21EF31E4090732B5090742B6090D5
:1054FA00752B7090762B8090772B9090782BA090BC
:10550A00792BB0907A2B840C951CA61CB71C8C1492
:10551A009D04AE04BF0408F442C00E94CF2D81113D
:10552A001BC00091732B1091742B2091752B309115
:10553A00762B4091772B5091782B6091792B709133
:10554A007A2B400F511F621F731FC416D506E60639
:10555A00F706A1F0C11112C0CF911F910F91FF90D0
:10556A00EF90DF90CF90BF90AF909F908F907F90F9
:10557A006F905F904F900895CC2389F0CF911F913F
:10558A000F91FF90EF90DF90CF90BF90AF909F90D8
:10559A008F907F906F905F904F900C94504C84EF57
:0255AA00DBCF55
:1055AC00CF92DF92EF92FF920F931F93CF93DF93E3
:1055BC00CDB7DEB72C97CDBFDEBF19861A861B86FA
:1055CC001C869E012F5F3F4F690128E0F601119266
:1055DC002A95E9F7009709F471C07C0126E230E0C6
:1055EC0040E050E060E00E94A558AE01475F5F4F7D
:1055FC0068E070E08CE090E00E94065C81115FC076
:10560C0089859A85AB85BC850097A105B10509F400
:10561C0062C0BC01CD01836008E010E020E030E006
:10562C00A6010E94CF2D81114AC08D819E81AF8130
:10563C00B885AA27BB2789879A87AB87BC87009731
:10564C00A105B10509F447C0BC01CD01836006E298
:10565C0010E020E030E0A7010E94CF2D81112FC077
:10566C00F701848190E0982F882726812F70AC0158
:10567C00422B9A01858150E1859FC0011124992705
:10568C00822B932B278130E0322F222741854F70BC
:10569C00B901642BAB01308570E1379F9001112467
:1056AC003327242B352B0097B1F02115310599F0B8
:1056BC002335334190F48235934178F080E02C9679
:1056CC00CDBFDEBFDF91CF911F910F91FF90EF9077
:0E56DC00DF90CF90089584EFF2CF83EFF0CFF0
:1056EA00CF92DF92EF92FF920F931F9388EDA895C6
:1056FA0084BF80910001807F809300010E940C5C2E
:10570A000E94AE3F0E942A568CEF9FE20E94635B82
:10571A008CEF9FE20E94DC5978940E94BA548CEF75
:10572A009FE20E94474480930C2C8CEF9FE20E94D8
:10573A00635B8CEF9FE20E94F55A40E257E466E110
:10574A0070E0C12CD12C760100E010E0980186B3FC
:10575A0086FB882780F9080F111D211D311D86B38C
:10576A0085FB882780F9C80ED11CE11CF11C415029
:10577A0051096109710959F7003913422B40310562
:10578A0070F580E9C81683E2D8068BE0E806F104D2
:10579A0030F060E086E89BE50E94A85131C089E0BC
:1057AA00E8E2F1EBA8E0BBE201900D928A95E1F7FD
:1057BA001092272B1F9281E08F9381E391EB9F93A5
:1057CA008F9386E49BE29F938F930E94A4500E943A
:1057DA0014590F900F900F900F900F900F9061E057
:1057EA0086E89BE50E94A8518CEF9FE20E94495AE5
:1057FA0044E650E060E070E08BEF90E30E945F3790
:10580A000E941E541F910F91FF90EF90DF90CF904E
:04581A000C94AE3FFD
:10581E003F924F925F926F927F928F929F92AF9232
:10582E00BF92CF92DF92EF92FF920F931F93CF937F
:10583E00DF93CDB7DEB72697CDBFDEBF2B013C0180
:10584E004D835E838FEF481651046104710411F08D
:10585E0008F074C034EC832EEFEF4E165104610441
:10586E00710411F008F068C0332433949AE0B92E15
:10587E001FC061E070E080E090E00E947656A12C9F
:10588E00C12CD12C760100E010E0980140E050E0F0
:10589E00BA018FEC0E9439288FEC0E941C3661E011
:1058AE0070E080E090E00E947656BA94BB2071F1D1
:1058BE00A32C84E0C82ED12CE12CF12C00E010E0BA
:1058CE009801B301A201882D0E943928982EF1E08B
:1058DE008F13CFCF882D0E941C36982E81E0981200
:1058EE00C8CF432D64E070E0CE0101960E94ED2EEC
:1058FE00982EE1E08E13BDCF89819A81AB81BC8158
:10590E00ED81FE8180839183A283B383892D2696B8
:10591E00CDBFDEBFDF91CF911F910F91FF90EF9022
:10592E00DF90CF90BF90AF909F908F907F906F90B1
:10593E005F904F903F900895312C98CF2AEC822E95
:02594E008BCFFD
:105950000F931F93809142018E7F80934201E091CB
:105960005131F0915231309709F470C040913B3180
:1059700050913C3160913D3170913E3186819781EB
:10598000A085B185841B950BA60BB70B009701E092
:10599000A007B105D0F54FEF5FEF60E070E08A013E
:1059A0009B01081B190B2A0B3B0BD901C8018093E3
:1059B000373190933831A0933931B0933A31809197
:1059C000410181FDFCCF109248011092490181E014
:1059D000809343018091410181FDFCCF809137315B
:1059E00090913831A0913931B0913A31809348018A
:1059F000909349018091420181608093420181E04E
:105A0000809377311F910F91089580913B31909150
:105A10003C31A0913D31B0913E310197AF4FBF4F26
:105A200080936B2B90936C2BA0936D2BB0936E2B6C
:105A3000E093692BF0936A2B85E69BE280935131CA
:105A40009093523180E090E0DC01B1CF809142012F
:105A50008E7F8093420110923B3110923C31109224
:105A60003D3110923E311092373110923831109200
:105A7000393110923A31109277311F910F91089578
